:400000000010002011000000D1170000D117000008B501F0DFFB0000F8B572B60122694B00211A7080226848D20003F09AFF80226648D200002103F094FF0022141C644958
:40004000FF25575828313E1C081C6300AE433D4001336419CB186100013141188B4206D0581E00781D78801905700233F6E70432282AE4D10124574BD8321A80564B574A55
:400080001C70574B57491A60574A584B3C201A609922574BEF251A609923564A1B041360554A802711605549554A564E1160564A02211360554AFF021360554A13608022FF
:4000C000544B52051A60FE22534BFF321A60534BE53A1A60524A13780B43524913700B788343283803430B70162113781C300B431370FB224C4B4D491A604D4A4D4B1A60A7
:40010000FF234D4A13604D4A1360C0224C4BD2011D604C4B1A6003224B4B1D604B4B1A604B4A4C4B1A6006234B4A13604B4A11604B4A136033683B43336001F091FD494AC4
:40014000494B201C1A601222484B1A60484B0F321A60484B013A1A60474B103A1A60474B21321A603023464A1360464A1360464A1360464A13601122454B1A608222454BD9
:4001800012061A60444A454B37601A60444A454B1A60454A454B1A60454A464B1A60464A464B1A60464A474B1A60474A474B1A600022474B1A60474B1D60474B1D6001F0A2
:4001C00051FBF8BD1C700F4000300F4000400F40D446000000600F4002600F40330033030000014000008080EEEE00000C0001401000014000500F4004500F400000013202
:4002000008500F4000010B4010500F4020500F4030500F4038500F402000004000800F4000700F4001700F4000000440310C0000B6655B0008000440000104401801044024
:4002400000020440080204401802044000030440A46DDB00080304400004044008040440180404400600008004010B40080202400C02024014020240180202401C0202408C
:400280002002024024020240280202402C0202403002024008010B40FE00008000000240FE0000C040000240010000808000024003000080040002400500008044000240B7
:4002C0000B0000808400024022000080080002400C020B4000031A4040031A4010B5064C2378002B07D1054B002B02D0044800E000BF0123237010BD500500200000000088
:40030000803F000008B5084B002B03D00748084900E000BF07480368002B00D108BD064B002BFBD09847F9E700000000803F000054050020C80000200000000038B5041C03
:4003400062B60225002001F0ADFF304A137C2B43137402F01BFD02F017FE01F0C5FE02F0E1FD01F0DFFA01F03BFB01F097FB02F09DFE02F0D5FC01F005FC01F0EDFB32200D
:4003800001F04EFC01F00CFD3C2000F07DFB01F085F900F043FBC82001F042FC02F07AF802F0DAF902F0CAFC03F02EF803F016F802F0EEFF02F0D6FF02F0AEFF02F096FFC9
:4003C00002F070FF02F058FF03F062F803F04AF802F0CCFE02F0B4FE01F05EFF01F046FF291C002002F0D6FE0020094902F0FEFE0121002002F0E4FE0023FA206374013304
:40040000A373800001F00CFC38BDC04600060020FF7F000008B50D2002F0C6FC0A2002F0C3FC08BD1FB5C37B012B11D10B68002B0ED1808D01AA0C1C80B2042101F081F911
:4004400001A802F011FDFFF7E5FF80239B0023601FBD000070B502F00DFA02F0D5F801F087FF0028FBD1051CFF24281C02F066FAEEB2164B002807D01A78002A00D1341C5D
:400480000121A9400A4303E00121A9401A788A4301351A70082DE8D1072C15D8201C03F0A5FB08040E060C0A121004240CE01B240AE0092408E0082406E00D2404E01024F5
:4004C00002E0062400E00524201C70BD6C050020013810B51A2800D9C5E00C1C03F086FB0E15232A4845B1A0A8C3C3C359C3C377C3C3C3C3C3C3C3C3C3C3B60000238B7389
:400500000B695B0700D4AEE02AE001228A730B699B08134200D1A6E05348073002F0A4FCFFF778FF9FE002238B730B695B0700D499E017E08B7B0133DBB28B738B7B022B11
:4005400001D900238B7323695B0700D48BE0A37BDBB2012BE0D0002B02D0022B02D082E04148DBE740480D30D8E78B7F013B01E08B7F013307221340A37723695B0760D581
:400580003948163002F070FCA07F313002F00CFC1AE04B7C0133DBB24B744B7C012B01D900234B74637C5A1E93415B00E37323695B0746D52D4802F057FC637C2C48002B8F
:4005C00000D12C4802F050FCFFF724FF39E08B7E0133DBB28B768B7E072B01D100238B7623695B072DD5244802F03EFCA07EC0B2062826D803F0FAFA0406080A0C0E1000D9
:400600001E480AE01E4808E01E4806E01E4804E01E4802E01E4800E01E4802F025FC10E0CB7F062B01D100230AE0CB7F013304E0CB7F002B03D0CB7F013BDBB200E006236F
:40064000E3770222237C934323740CE0CB7B002B02D0CB7B022B01D1012303E04B7C5A1E93415B00E37310BD843F0000AC3F0000A53F0000A83F0000B13F0000BB3F000081
:40068000C43F0000CA3F0000D53F0000DF3F0000EB3F0000F63F00000B68002B12D1028CC37F9A4203D2038C01339BB20384028CC37F9A4203D9038C013B9BB2038480233A
:4006C000DB000B60704700000288104B9A1A921092B2828482889A1A921092B2C28442899A1A921092B20285C2889A1A92B24285028992B2828582899A1A92B20283428871
:400700009B1A5B43DB0A43617047C046FF07000038B5837B041CDBB2012B28D0002B07D0022B2FD1C11CCA7F01209A43CA7724E0012002F011FC012002F01AFC236A0125CA
:400740009B031FD4281CA37F984301F0B5F9C82001F066FAA07F284001F0AEF9C82001F05FFA0221E21CD37F0B43D3770AE00221C21C0020D37F8B43D37702F0EDFB002004
:4007800002F0F6FB0125A07F284001F095F9A07FE840284001F09CF9A07F8008284001F0A3F9E07B013843425841C0B201F07AFD38BD000073B5254EC27F331C1D335B788A
:4007C000051C341C9A4211D0214802F04DFB6A46311CEB7FD01D1E310122037002F0D6FB002803D01B4802F03FFBFEE7261CAA7E637F1D369A4210D0174802F035FB6A4631
:40080000AB7ED01D311C0122037002F0BFFB002803D0104802F028FBFEE7231C1D33AA7F9B789A4211D00D4802F01EFB6A46211CAB7FD01D1F310122037002F0A7FB002838
:4008400003D0044802F010FBFEE773BD843F0000FF3F00000E400000214000003640000013B5019103699B0709D4019B002B06D1041CFFF79FFF0222237C1343237413BD0A
:400880000A4A0421131C527F1D33D2B282765A78D2B2C2779A78D2B28277DA78012313409A00037C8B43134303747047843F000010B51D4C201CFFF741FD201CFFF7E0FF2F
:4008C0001A4802F0D1FA1A4802F0CEFA194802F0CBFA194802F0C8FA082002F09FFC201CFFF7F2FEFFF7B6FD211CFFF7F1FD201C00F02CFD02F0C4FA0122237C1040934302
:4009000018432074201CFFF703FF201C0B49FFF7C3FE201C0A49FFF785FD0A4B201C1968FFF79EFFD8E7C046000600204840000059400000654000007D400000F40500201A
:40094000F0050020F805002038B5031C0D1C0E4A191C107800232A1C01F008FB01F09AFA8307FBD501F096FA80239B001840041E01D0FF2403E001F087FAA842F9D101F098
:400980009FFA201C38BDC0466E05002010B5134B0C881A78022A0BD0032A16D0012A1BD103880B800E4B1B88013B1B1B038013E00B4B02881B88013B9B1A0380094B0A8883
:4009C0001B88013B9B1A0B8006E0064B02881B88013B9B1A0B80048010BDC046320600203006002034060020044B1A795988D20052185A800022DA807047C0466E050020F4
:400A0000802210B5044C0021601CD20003F0A9FA4023237010BDC046CC00002013B507246846221C054903F093FA211C6846FFF78BFF03490348FFF787FF13BD9240000078
:400A400001040000CC00002000220A4B18800A4B19800A4B59810A49DA800A7001215A804942013218811A719981D981054B1A707047C04630060020340600206E05002006
:400A8000320600203606002010B51A24094B88B0187040218020FFF7D7FF0749221C01A8073103F055FA01A8211CFFF74DFF08B010BDC0466E05002092400000014BD88031
:400AC000598070476E0500200123002800D0031C014A13717047C0466E050020014B9881D88170476E050020014B98817047C0466E05002073B56B4601AD141C9E1DD880F2
:400B0000298000284DDB274A0821535E834248DD00216B5E002B44DB0A21525E9A4240DD301C291CFFF732FF33882A887F2B38D891B23F2935D8012C14D0002C21D0022C8C
:400B40002FD112B2D210D2011BB2D318164A0132D21807231940063B8B40191C1378594011701EE012B2D210D2011BB2D3180E4A0132D218072319408C4011780C4314700F
:400B80000FE012B2D210D2011BB2D318064A0132D21807231940063B8B40191C13788B43137073BD6E050020CC000020F0B589B0161C0EAA1288041C0D1C0192B04202D057
:400BC000994200D004E106AA1480971C07AA168006AA3D80D380B44202D09D4200D051E10221A94A12788A43012A1DD1002C00DA48E1A64A0021525E944200DB42E1002E46
:400C000000DA3FE1964200DB3CE1002D00DA39E19F4A0021525E954200DB33E1002B00DA30E193421EDB2DE1002D00DA2AE1974A0021525E954200DB24E1002B00DA21E1D5
:400C4000934200DB1EE1002C00DA1BE1904B00229B5E9C4200DB15E1002E00DA12E19E4200DB0FE106A8391CFFF790FE06AB9C1D07AD281C211CFFF789FE06AB1B882A88CF
:400C800002936B461B8910B219B2814206D10023E65EB4460023FE5EB44508DB0023FE5EB4460023E65EB4450AD1884208DA6B461B8906A90A802B8022883B883A80238004
:400CC00006AB0020185E398826880023EC5E0AB2704BA04258D135B25F1CD417EB17640F5B0FA4185B19E410DB10DB01E401241818183B1868483C19024004D50827013A0A
:400D00007F423A430132D2B2511A7618F6B2371C062E00D907270121FFB2BF1A0137B9400F1C013F9740291CFAB2014004D508200139404201430131012009B28840211C2A
:400D40000138C0B2994200D99CE0A14203D0051C994212D100E0151C019E012E06D0002E07D0022E0ED10E7875400AE00E78354307E00E78AE43351C03E0019D012D77D171
:400D8000FF250D708031DDE7D5176D0FAA18D210D201121801339B1807221140063A8A40111C201A1818D4B283426BD8019A012A06D0002A07D0022A08D11A78624004E0CA
:400DC0001A78224301E01A788A431A700133EBE7591ACA1789185140321AD01712184240914208DD01220292321C1E1C131C221C2C1C151C01E000220292B44205DD2A1C35
:400E00001D1C131C221C341C161C321B92B203925A1BD11752184A4005926A460C21525ED70FBA18521097B2012204929D4219DB1A4B049316E0029B002B16D0281C211CDF
:400E4000019AFFF757FE059BFF1ABBB29FB23AB2002A05DA049AAD18039A2DB29F18BFB2013424B2B442E6DD0CE0201C291CE7E7002D02D16D462D7983E7022D82D10D7850
:400E8000ED437EE709B0F0BD320600203406002030060020CC00002007000080FFFF0000F0B50E1C1C1C071C85B00AAB551E1B882D182DB2039300932A1C331C013CFFF77F
:400EC00075FEA419039B24B20093381C211C2A1C231CFFF76BFE039B381C0093311C3A1C231CFFF763FE039B281C0093311C2A1C231CFFF75BFE05B0F0BDF0B5061C0D1CA0
:400F0000171C0C1C85B002930AAB1B880393029BEB189C420CDA039B7A1E92190093211C231C12B2301C0134FFF740FE24B2EEE705B0F0BDF0B589B01C1C6B4604921D8AC0
:400F40000123071C0E1C5B1B9BB202936B005B429BB207938BB2E91809B2221C0093FFF7C9FD009B381C591B09B2221CFFF7C2FDBBB2E81800B2311C221C0193FFF7BAFD37
:400F8000019B311C581B00B2221CFFF7B3FD002306936B4618229B5E049A93426BDA6B4608229B5E002B0CDB049B013B1BB20493079B02339BB29AB20792029A9B189BB21D
:400FC00002936B461B8B029A03935B000333D3189BB20293019B009A5E1C039B9E196B461B8A36B29F183FB2301C391C221C0593FFF780FD019B391C5D1E039B221CED1A51
:401000002DB2281CFFF776FD009B059A301C9F1A3FB2391C221CFFF76DFD281C391C221CFFF768FD059B019A9E18009B36B25D1C039B301C5D192DB2291C221CFFF75AFDD3
:40104000019B059A291C9F1A3FB2381C221CFFF751FD009B301C5D1E039B221CED1A2DB2291CFFF747FD381C291C221CFFF742FD069B01338CE709B0F0BD0000F0B591B02D
:401080000B9316AB1B8809900C9317AB1D78424B0A910820195E099881427BDD0A215B5E0A998B4276DD06236B43C318002B71DD0A99EB00CB18002B6CDD0A2353430E9301
:4010C0000B230893002307936B461C229A56002303930A2A05D0314B0E9921335B189B5C03936B469B8C049393B20593ABB20693069A059B5343049AD3189BB20D936B4613
:401100001C8D231C271C261C08339BB20F93039BDB070FD5012D06D1049A059B31B2981800B20B9A12E06B4639B23420185E0B9A2B1C14E00C9B0B9A934214D0012D08D143
:40114000049A059B31B298180C9A00B2FFF7D2FC09E06B463420185E2B1C0C9A21B200921A1CFFF7CAFE039B01365B080393069BB6B2FF18E4180F9BBFB2A4B29E42C6D106
:40118000079B0133DBB20793089B013BDBB20893002B99D111B0F0BD6E05002092400000F0B591B00B9316AB1B8809900C9317AB1D78424B0A910820195E099881427BDDC9
:4011C0000A215B5E0A998B4276DD06210B1C6B43C318002B70DD0A98EB00C318002B6BDD052353430E930023089107936B461C229A5600230393052A05D0314B0E99673310
:401200005B189B5C03936B469B8C049393B20593ABB20693069A059B5343049AD3189BB20D936B461C8D231C271C261C08339BB20F93039BDB070FD5012D06D1049A059B31
:4012400031B2981800B20B9A12E06B4639B23420185E0B9A2B1C14E00C9B0B9A934214D0012D08D1049A059B31B298180C9A00B2FFF740FC09E06B463420185E2B1C0C9A94
:4012800021B200921A1CFFF738FE039B01365B080393069BB6B2FF18E4180F9BBFB2A4B29E42C6D1079B0133DBB20793089B013BDBB20893002B99D111B0F0BD6E050020FB
:4012C00092400000F0B5021C85B00A2802D1FFF78BFB27E00D2825D0134CE389E588668827790393A38928B2009331B2039B0197FFF756FF0622BBB25A4355190B4AADB2C5
:401300001278E580002A0DD00822A15E0622524257432DB2CF19BD4204DDDB009E1900236680E38005B0F0BD6E0500203606002038B5041C02F01DFE2518AC4204D0207891
:40134000FFF7C0FF0134F8E738BD0000F0B589B0041C0127FFF754FB00208022011C0F230097FFF79DFD381CFFF7AEFBA67BC04DF6B2BE4228D0002E14D0022E39D10020DF
:4013800018220F23011C0097FFF7B7FD04210320FFF794FB0020FFF7A1FB281DFFF7C8FF381C24E0381CFFF799FB04210320FFF785FB281CFFF7BCFF0097301C311C18228F
:4013C0000F23FFF76DFD14E0002018220F23011C0096FFF792FD04210620FFF76FFB0020FFF77CFB281C0830FFF7A2FF301CFFF775FB01F045FD0126011C009668200029E8
:401400000ED0002118220F23FFF777FD0020FFF765FB6B200421FFF751FB281C0C300CE018220F23FFF73CFD301CFFF757FB6B200421FFF743FB281C1030FFF779FF0120DD
:40144000FFF74CFB04212020FFF738FB281C1430FFF76EFF03232A1CE07F1B3258431018FFF766FF8348FFF763FF00203921FFF725FBA38D002B1AD0281C3030FFF758FF97
:401480005F230127A68D1E205E43F60A32B23921583B0097FFF731FD2F220023B2425B414D209BB200933A21021C3D2330E0677CFFB2002F27D0012F33D1608A668D83B2AA
:4014C000281C0293B3B25F2640300393FFF730FF02983C217043000C1E3000B202223B1CFFF728FD1E203921021C3E230097FFF75DFB039A00977243D20A1E3212B2101CB1
:4015000039213E2304E0281C3630FFF711FF08E0FFF74CFB7C2000973921021C3E23FFF745FB10211E20FFF7C9FA5348FFF700FF6423A08C0221584305AA400A00F001F9E9
:4015400005A8FFF7F5FE4D48FFF7F2FE6C201021FFF7B4FA637CDBB2002B04D0012B05D1281C083000E0281CFFF7E2FE64250127002619211E20FFF7A1FA4148FFF7D8FEE1
:40158000E08C05AA68430221400A00F0DAF805A8FFF7CEFE3B48FFF7CBFEA27E3B1CD2B2009601976E201921FFF768FD22211E20FFF784FA3448FFF7BBFE208D05AA684312
:4015C0000221400A00F0BDF805A8FFF7B1FE2F48FFF7AEFE606905AA6843C00A022180B200F0AFF805A8FFF7A3FE2948FFF7A0FE2B211E20FFF762FA2648FFF799FE608D88
:4016000005AA68430221C00A00F09BF805A8FFF78FFE2148FFF78CFE208B05AA68430221C00A00F08EF805A8FFF782FE1848FFF77FFEA07F05AA391CC01900F082F80520DE
:40164000FFF742FA301CFFF74FFA301C1021FFF735FA05A8FFF76CFE3521301C7F220B1C0097FFF7A3FAFFF7D9F909B0F0BDC046F4450000484600004C4600005246000045
:401680005A46000060460000674600006D46000074460000764600007C46000013B5FFF7AFF90124002080220F23011C0094FFF7F7FB201CFFF708FA201CFFF70FFA0421A0
:4016C0001A20FFF7FBF91148FFF732FE13210920FFF7F4F90E48FFF72BFE22210720FFF7EDF90C48FFF724FE2D212820FFF7E6F90948FFF71DFE38210A20FFF7DFF9074873
:40170000FFF716FEFFF78AF913BDC0468346000091460000A4460000B8460000C146000010B5041C02F025FC431E201CE318984206D202781978013B01705A700130F6E7EF
:4017400010BDF7B5051C161C141C171C0139CBB201930093281C0A2102F0D8FA30313970281C0A2102F04CFA009B85B2013BDBB200930137FF2BEDD1019B301CF118002316
:401780004B70FFF7CDFF2378302B06D16378002B03D0202323700134F5E7F7BD09490A4A0B6808689BB2000C50435A4310B5C40B4004A3184008181801D5044BC0180860E9
:4017C00010BDC046D0040020A741000001000080FEE7000070B51049104B01394A1C15D000221E685C689D68A018AA4203D0B058A0500432F8E7021CDC68151AA54202D037
:40180000002520C2F9E710330139E7E702F07AFBFFF74EF8FEE7C046010000008C4E000008B500239A000B49032B01D80A4989580A4801338150302BF4D1FEF7EDFB00228E
:40184000074B01211A608022D20513680B43136008BDC046D11700000000000000000020C0000020054A1368002803D0802109060B4301E05B005B081360704780031A40A9
:40188000802200210C4BD2041A601A681A600B4A11601A681A600C22094B1A60094B0B3A1A60094B30321A60084A094B1A60094B883AFF3A1A60704780010540880105408D
:4018C000A4010540B8010540A8010540FF010000940105408C010540014B80B2186070478C01054038B50D1C041CAC4000F05AF9024B1C6000F05AF938BDC046080005402E
:4019000010B5042400F04EF9054A13682343136000F04CF9201C1821FFF7E4FF10BDC0460000054010B5054C2378002B03D1FFF7A7FF01232370FFF7E3FF10BD7E050020FA
:4019400080220C4BD2041A601A680B491A6000220A60196819600C21084B1960084B0B391960084B303119600749084B1960084B1A607047C0010540C8010540E401054034
:40198000F8010540E8010540FF010000D4010540CC010540014B80B218607047CC01054038B50D1C041CAC4000F0FCF8024B1C6000F0FCF838BDC0460800054010B50824E4
:4019C00000F0F0F8054A13682343136000F0EEF8201C1821FFF7E4FF10BDC0460000054010B5054C2378002B03D1FFF7A9FF01232370FFF7E3FF10BD7F05002080220C4BE9
:401A0000D2041A601A680B491A6000220A60196819600C21084B1960084B0B391960084B303119600749084B1960084B1A607047000105400801054024010540380105402E
:401A400028010540FF010000140105400C010540014B80B2186070470C01054038B50D1C041CAC4000F09EF8024B1C6000F09EF838BDC0460800054010B5012400F092F8AA
:401A8000054A13682343136000F090F8201C1821FFF7E4FF10BDC0460000054010B5054C2378002B03D1FFF7A9FF01232370FFF7E3FF10BD800500201023044900010A6863
:401AC0009A43D2B2034013430B607047000304402023044940010A689A43D2B2034013430B607047000304404023044980010A689A43D2B2034013430B60704700030440D7
:401B000010B50024201C01F023F90A3080B202B2092A04DD064B9A4202DD181C00E00020044B620080B20134D052072CEAD110BDFF0700000006002010B5041C00F032F8DF
:401B4000C021044AA40113688B432343136000F02DF810BD00E400E010B50124054B064A1C60064B03201A64FFF7E6FF044B1C6010BDC04680E100E0011B000000000020DB
:401B800000E100E00122014B1A60704780E200E00230800804D0C0460138FDD1C046C046C0467047EFF3108072B6704780F310887047C046C046C046024B8000C3181868D1
:401BC000196070474000002038B5041C0D1CFFF7E9FFA308074A9B009B180322144094400634A240A5401968914329431960FFF7DDFF38BD00E400E01F2318401E3B83402E
:401C0000181C014B1860704700E100E01F2318401E3B8340181C014B1860704780E100E010B5041C8022074B1202944205D91868FFF7AEFF044BE418F4E758686043FFF74B
:401C4000A7FF10BDD40400200080FFFF08B5034B1B7A5843FFF79CFF08BDC046D4040020F0B5051C87B0FFF79DFFEB1E049003932D2B5BD8304B1B789D4204D82F4B1C78C8
:401C80002F4BE4B21EE02F4B1B789D4204D82E4B1C782E4BE4B215E02D4B1B789D4204D82C4B1C782C4BE4B20CE02C4B1B789D4204D82B4B1C782B4BE4B203E02A4B1C78AC
:401CC0002A4BE4B21B78039ADBB20193284B294F9A5C059302922F2A04D92A2D02D919263E6008E03F233E681E40029BB34205D2204B029A1A600520FFF74AFF1B4B1E4ACC
:401D0000ED182B780520DBB213601C4B019A1C601B4B1A60FFF79AFF029BB34206D9059B039A05209B5C3B60FFF732FF0498FFF73DFF07B0F0BDC046C0F1FF0FC1F1FF0FA6
:401D4000C2F1FF0FC3F1FF0FC4F1FF0FC5F1FF0FC6F1FF0FC7F1FF0FC8F1FF0FC9F1FF0FCAF1FF0FCBF1FF0FCCF1FF0FCDF1FF0F144900002CFF0B4028FF0B401CFF0B406A
:401D800020FF0B408021054A08B5136809060B4313600B20FFF730FF08BDC0460000074010B5054C2378002B03D100F007F801232370FFF7E7FF10BD840500200C2110B5C5
:401DC00000241C4A0B2013680B4313601A4B1B4A1C601B4B1A601B4B1B4A13601B4A14601B4A14601B4A13601B4B1C60FFF70EFF0B200321FFF7E8FE18490B20FFF7DCFE98
:401E00001422174BFF321C60164B1C60164B1C60164B1A60164B043A1C60164BFF3A1C60154B1A70154B1C80154B1C60154B1C6010BDC0467000074000000740C7080080D9
:401E4000600007400701008000030740040307401003074000020740040207401D360000C80E0740880E0740480F0740080F0740C80F0740880F07403706002038060020AB
:401E80004006002044060020014B18687047C0464406002010B50B20FFF7B8FE064B1C88064BA4B21B789B0601D504231C430B20FFF7A2FE201C10BD380600203706002012
:401EC00010B50B20FFF7A2FE0022044B0B201C88A4B21A80FFF790FE201C10BD380600201E4B70B51E6800F0AFF80028FBD0002000F0B2F80F221A4C1A4D23689343236007
:401F00002B685B005B082B60B3060FD5002000F0A3F80320FFF79AFE012000F09DF800F0A7F80028FBD00320FFF790FE002000F093F80320FFF78AFE012080220A4B120691
:401F400018602B6813430F222B6023689343013A1343236000F080F870BDC046640007400C0001400000074068000740F7B5061C0F1C019200930424002944D0244D2B78AE
:401F8000102B08D10B20FFF741FE224B24191B68DB0738D408E02B780424602B33D108211D4A13888B43138028232B7000251B4B019A1D601A4B18491D601A4B76001A60A3
:401FC000194B01241F606B461A78184B184F1A70FF2302221E400B8893430B801549164B1960402315490B6015490B60009B23401C1EAC4204D0FFF773FF2C1C3E6002E053
:40200000104B3E601A600B20FFF7F6FD201CFEBD3706002064000740380600203C060020440600204C060020500600203A0600204002074017030000000F0740800F0740D9
:40204000880F074068000740024B18688007C00F7047C04604030440012304490A689A43D2B2034013430B607047C04600030440024B1868012318407047C046040304400B
:402080008023024A11780B431370704773000F40034B1B781B0702D5024B1B88F8E7704763000F4084100F4008B50A4A0A4B13800A4A1380FFF776FD1021094A13780B43C3
:4020C0001370FFF773FDFFF7E3FF0022054B1A7008BDC04644100F409304000004100F4093000F4083000F4010B5054C2378002B03D1FFF7D9FF01232370FFF7C1FF10BD4F
:402100008C050020F8B5494C494D637C002B04D063692A68DB029B182B602B686A685B00934202D2FFF73AFB28812A6853006B60A07E130CC0B2110EDEB2062839D801F044
:4021400055FD1104143920223600FF204B1C394F03405B004900DB5BC95B821B73434A439B1821E0D21793B224E03349D30B5B188021C9051140D20FD2079BB2520891425D
:4021800018D0DB4311E0FF224B1C13400133294FFF335B00DB5B01317343181CFF314900CB5B921B5A4383181B0A9BB202E02B8900E000231AB2002A04DA608D1F4A218B5D
:4021C000121A01E0618D228B4A431D49D21258184243668D900A31048A1BD112421892B26282627CD2B2002A02D0012A09D014E0EB68002B02DA638DDB0807E0638DDB0862
:4022000008E0EB68002B03DA638A1B0AFF3304E0638A1B0AFF22D31A9BB2EA680949A3835218EA600822084B1A60F8BD000600209005002042490000FF7F0000FF070000B2
:402240000180FFFF4D62100880E200E010B5041CFFF7A8FC044AA40713689B009B0823431360FFF7A3FC10BD00E400E010B50824054B064A1C60064B0320DA64FFF7E6FF0C
:40228000044B1C6010BDC04680E100E0052100000000002000E100E00822014B1A60704780E200E01023044900010A689A43D2B2034013430B6070470002044010B50F2402
:4022C0001249134B0A6813481A70037823401A1C0378201CA34313430B600F4A0F4B1A600F4A104B1A60104A104B11680B40C021C9000B431360FFF789FC201C0C49FFF71B
:402300005BFC201C0321FFF75FFC10BD00FF08405806002062F1FF0F0002000108000840C008A0010400084010000140FFF0FFFF6529000008B500F01FFC00F001FC0020F9
:40234000011C00F005FC0020011C00F01DFC00F009FC00F0EBFB044A044913680F200B431360FFF749FC08BD0400084000100880024B1878012318407047C046A005002079
:40238000024B40000233185A7047C046A005002070B50F4E345C3018A400057AFFF702FC33190F26A900C9B28E401C692268B24304268E40596A03236B430725DBB29D405A
:4023C00032430E68AE430E602260FFF7EFFB70BD444D0000194BF7B51A18177A1C5CB900C9B28C46164AA400105C1A1916690F21326803250192624691407D43019AEDB208
:402400008A43326001930026012800D00636FFF7C9FB0721AE40A940351C019B1C19626A13688B431D431560FFF7C0FB0122BA40A16B0B6893430B60F7BDC046444D0000B0
:402440007306002010B50024201C0134FFF7C2FF082CF9D110BD00000323034918400A68400210430860704704000840002310B50024074A9A1801331470082BF8D1FFF7F2
:402480001DFF201CFFF7E8FFFFF7DCFF10BDC0467306002010B50A4CA37C002B03D1FFF7E5FF0123A374FFF745FF00F0EFFA01238021044AE3741368C9030B43136010BD0A
:4024C000A005002004000840072301220B409A40C908405C1040431E9841704710B5041C0134E4B2082C06D00448211C2030FFF7EBFF0028F4D0201C10BDC046E404002035
:40250000F8B5041C2A4B2B4A4C331B5C211C9B0029489D58FFF7D8FF284B9D4203D88540FF2000040543264B0021185D254F013880B200F00DFB244B0021185D013880B238
:4025400000F022FB214B5B7D002B09D00F20FFF75DFB40223B680F2013433B60FFF74CFB0F20FFF753FB1A491A4A0B68105D1A4A13401A4A0343125D0F20120413430B6037
:402580003E68174B1E40174B1E43FFF735FB201CFFF7FEFEFFF706FB041C3E600020FFF7F7FA114B201C1D60FFF700FBF8BDC046444D0000E404002059060020FFFFFEFF0E
:4025C0007B060020040008405B060020A0050020080008406306002000FF80FF6B060020FF1FDFFF200020000C000840002208B5044B1A70C2B21A7581221A70FFF780FFD3
:4026000008BDC046A0050020002310B50A4C2370FF332375207DC0B2FFF760FF2075237D072B07D80122237813432370207DC0B2FFF766FF10BDC046A0050020F8B5174B0D
:40264000174A1C68174B184E4C331B5C02369B009A58164B4700051CBC539A4206D81448291CFFF731FFA4B20441BC53281CFFF7B1FE0F20FFF7CAFA0E4A0F4B11680F20C3
:402680000B40A02109020B4313600C4A0C4B11680B401360FFF7B0FAF8BDC0460C000840E4040020444D0000A0050020FFFFFEFF5906002004000840FF1FDFFF080008403F
:4026C00000FF80FF10B50724CB082140063C8C40C018E1B20378002A02D01943017001E08B43037010BD000010B5041CFFF77EFF034B1A78D207FBD402336400185B10BDD3
:40270000A005002030B50025084B42001C5C084BD15A084B1818057405760748D152005D01331B19D877054BD15230BD904D0000A2050020B6050020280500209C06002054
:4027400010B5041CFFF752FFFFF712FE0028FBD1201CFFF7D7FF10BD10B50024201C0134FFF7EEFF082CF9D110BD0000F7B5344B344A1F5C344B4500DB5D041C0093334B05
:40278000AE5A1B7A002B07D031496B5A9E195B00F618B608B6B26E52E1B22E4801F0A8F92D49485B0191864206D300222B4B351A1A55ADB2012317E0294B851BDB5DADB2D3
:4027C000AB4210D2214A254F09323B5D125D00269A4204D8201CFFF795FF3E5501E001333B55331C1CE00023009A954205D91C4AD25DAA4214D9002B11D102029446614650
:40280000019A17193A7C0A43101A861901996200300A88520021114A3E74115500E001230D4A009914198D4206D9002B04D0FF23FF2D02D8257601E000232376F7BDC04675
:40284000904D0000A205002084060020280500209C060020FC060020B60500208C0600209406002010B5041C00F0BAF8201CFFF77DFF10BD10B500240648211CFFF724FE04
:40288000002802D0201CFFF7EDFF0134082CF3D110BDC04604050020244BF0B51D5C244B244C1A1C271C061C1132525D85B00192214A5B5D525D2937381C311C0393029219
:4028C000FFF702FEA31900280DD01A7E0299019B5B1A9A4220DA381C311C0022FFF7F2FE631C5D1915E00298197E8446019B63441A1C631C5D1991420BDBEB7F013BDBB21F
:40290000EB77002B08D1381C311C0122FFF7DAFE02E06B461B7BEB77201C311C2930FFF7D3FD431E984105B0F0BDC046904D000028050020B6050020AC06002070B50026A8
:40294000074B1C5C1818057A2D19201CFFF7A4FF002800D001260134AC42F6D3301C70BDB84D000070B501260F20FFF74FF9164B164D1E602878C0B2FFF760FE144C2378DE
:402980005BB2002B03DA2378B343237018E02878C0B2FFF7A3FD28702B78072B04D82878C0B2FFF7ADFD0BE02378B343237023785B0605D5074B1A78074B1E70074B1A70BE
:4029C0000F20FFF719F970BD14000840B4050020A00500205A060020E005002004050020064B074A1B5C0748D25C5108C1540648D208C1540549CA547047C046904D000084
:402A0000390500208406002094060020AC0600204021024A13688B431360704704000840044A054B11680B40802189000B4313607047C04608000840FFFCFFFC002238B537
:402A4000007882420AD20C490C4C51180B785D0801335B08A5540B700132F2E70F20FFF7D5F8074A074B11680F200B4006490B431360FFF7C1F838BD630600206B060020D3
:402A800008000840FFFCFFFC0002000138B508231E4C23706370A3702833E3803423FF33A3801B4BA360FFF7B3FF00236278934205D2184D1848990045500133F7E7002386
:402AC00004221649CA541649CA540133082BF7D1FFF7A6FF201C134900F06AFF201C00F078FF0122104B201C0E491A7000F060FF201C00F08FFF201CFFF7A0FF0024201C83
:402B00000134FFF76DFF082CF9D138BDFC060020C84D00000000FF0FE40400205B0600207B0600209A0D0000B50500208021034A090613680B4313607047C04600000240E3
:402B4000024A13685B005B081360704700000240034A13681B0C1B04184310607047C046000002408021034A090613680B4313607047C04640000240024A13685B005B088F
:402B80001360704740000240034A13681B0C1B04184310607047C04640000240F8B50E200321FFF711F80E203849FFF705F87F22374B1A60374B1B68002B01DB364900E0A9
:402BC00036490024364A01201368364E0B4380211360354A354B49021A60354A354B364F1A60364B364A1C60364B1360364A1360364B1A680A431A60354A13680B43136085
:402C00000222344B34603C601860334B33491A600B68334A134003430B60324BDC22181CA500E9581C30205C92010A4002432E48281802600122114203D0A24031680A4339
:402C400032605A59920704D50122A24039680A433A605A598020930501D4400100E0C00080235B00134021496200002B00D043088B521F4B1F4958431F4B0134C01801F05A
:402C80004FF81E4B5851072CC7D1F8BD692D000020001A4080031A40702000117020101100001A4028021A40D500008004001A400000FF0718001A4038021A401C001A40E9
:402CC00010001A400400040014001A4000031A4040031A4018021A40000F1A4030001A40FFFFFFDF344E000080001A402C07002010270000C8190000E40C000010070020C9
:402D000008B5064B1A68002A07DB80211A6809060A431A600A20FEF799FF08BD00001A4010B5054C2378002B03D1FFF737FF01232370FFF7E5FF10BDE10500208021034AFA
:402D4000490213680B4313607047C04604001A400023062804D8034B8000C01803689BB218B2704780011A40014B1A681A60704710021A408021044A08B5136809060B43DB
:402D8000136000F067F808BD0000064010B5054C2378002B03D100F015F801232370FFF7E9FF10BDE2050020044B1A680F231340082BF9D0024B18607047C046080206400C
:402DC00040020640124A134B10B51A60002301210724114A11481360114A1160114A026011480460114803601148016011490A60114A1360114A1360114A1360114A136003
:402E0000114A1360114A1360114A136010BDC0460B00000200000640400006400003064048000640070000800403064010030640440006400002064004020640880E06407E
:402E4000C80E0640480F0640080F0640C80F0640880F0640F021034A13688B4360390B43136070471000014010B5041C0134631E1878002802D0FFF797FFF7E710BD0000DD
:402E8000024B18680007C00F7047C046040004408023024A11780B431370704771000F40034B1B78DB0602D5024B1B88F8E7704761000F40A0100F403F2110B5124A134CFC
:402EC00013788B4336390B431370114B08391A780A431A7023780F4A0B432370E62313800D4A138073220D4B1A8000220C4B1A70FEF758FE1022237813432370FEF756FE04
:402F0000FFF7CEFF10BDC04671000F4091000F4090000F4000100F4080100F4040100F4081000F4010B5054C2378002B03D1FFF7C3FF01232370FFF7ABFF10BDE30500203B
:402F4000014B18807047C04680100F40014B18807047C04640100F400423044980000A689A43D2B2034013430B607047000004407F23044AC00111680B401843C0B2106019
:402F80007047C0460003044070470000F0B51D4B8D18A5B001249D4230D803900020071CCD09CC0BEDB224026419E40104AE02920191361B029B9F4205D3041E012C1DD9D5
:402FC000012464421AE00028F7D1231C8033019AA24207D8029A974204D2039AD25D0137325501E02278325501349C42EFD1281C04A900F053FA0135803EDBE7201C25B02C
:40300000F0BDC046FF7F0000802200210C4BD2041A601A681A600B4A11601A681A600C22094B1A60094B0A3A1A60094B2F321A60084A094B1A60094B013AFF3A1A607047E1
:403040004001054048010540640105407801054068010540FF010000540105404C010540014B80B2186070474C01054038B50D1C041CAC40FEF796FD024B1C60FEF796FDC0
:4030800038BDC0460800054010B50224FEF78AFD054A136823431360FEF788FD201C1821FFF7E4FF10BDC0460000054010B5054C2378002B03D1FFF7A7FF01232370FFF7E5
:4030C000E3FF10BDE4050020104A1368191C481E81415B1A13600E4A1368013313600D4A1368191C481E81415B1A13600A4B1A690A4B920705D41A68002A05D01A68013A90
:4031000001E08022D2011A607047C046F4050020EC050020F005002000060020F805002010B5041CFEF73EFDC021044AA40113688B4323431360FEF739FD10BD08E400E0B1
:4031400010B58024054B64001C60054A054B03201A66FFF7E5FF044B1C6010BD80E100E0C93000000000002000E100E08022024B52001A607047C04680E200E0044BC0001E
:403180001B680130C340181C012318407047C04610020B4038B5041C0D1CFFF7EFFF00280AD10321081CE400A0402940A140034A136883431943116038BDC0460C020B406C
:4031C00038B5041C0D1CFFF7D9FF00280AD1E40002340121A540A1402C1C034A13688B431C43146038BDC0460C020B4038B5051C0C1CC920FEF72AFD064A28018240844087
:40320000054943200B68934323430B60FEF71EFD38BDC046FFFF000008020B40044B054A196810400843186019681142FCD1704710020B400808080008B5044B988B80B205
:40324000FFF70EFF0422024B1A6008BD0006002080E200E010B5041CFEF7A4FC0449054A0B68A405134023430B60FEF79FFC10BD00E400E0FFFF3FFF10B50424054B064AF1
:403280001C60064B01209A64FFF7E4FF044B1C6010BDC04680E100E0393200000000002000E100E00422014B1A60704780E200E008B5044B188D80B2FEF7CAFB8022024BAD
:4032C0001A6008BD0006002080E200E010B5041CFEF768FC044AA40713689B009B0823431360FEF763FC10BD04E400E010B58024054B064A1C60064B0320DA65FFF7E6FF62
:40330000044B1C6010BDC04680E100E0B13200000000002000E100E08022014B1A60704780E200E008B5044BD88C80B2FEF732FB4022024B1A6008BD0006002080E200E06F
:4033400010B5041CFEF72EFC0449054A0B68A405134023430B60FEF729FC10BD04E400E0FFFF3FFF10B54024054B064A1C60064B03209A65FFF7E4FF044B1C6010BDC04653
:4033800080E100E0253300000000002000E100E04022014B1A60704780E200E008B5044B988C80B2FEF798FA2022024B1A6008BD0006002080E200E010B5041CFEF7F2FB8C
:4033C0000449054A0B68A403134023430B60FEF7EDFB10BD04E400E0FF3FFFFF10B52024054B064A1C60064B03205A65FFF7E4FF044B1C6010BDC04680E100E09D33000065
:403400000000002000E100E02022014B1A60704780E200E038B5084D084C2B8C5B00185BFFF78EFD2B8C5B00185B4008FFF78EFD1022034B1A6038BD00060020584E000005
:4034400080E200E010B5041CFEF7ACFBC021044AA40113688B4323431360FEF7A7FB10BD04E400E010B51024054B064A1C60064B03201A65FFF7E6FF044B1C6010BDC046E6
:4034800080E100E0153400000000002000E100E01022014B1A60704780E200E0F0B50024ADB008940994FF2800D995E0A14200D192E0049080220CA800F04AFD0222231C32
:4034C000211C01940AAD90004059002802D00918034301920132222AF4D1002901D1002B7DD1002702977F234249434C0A91434E6B60434B2560336022680793120F069179
:4035000000230A2A02D022680F3313400893089B0393002B6AD1FEF745FB3A4A3A4B116805901960039B03920993089B002B12D1364A04990A920A9A09040A430A92344AF3
:40354000256032602268120F0A2A03D02A4B1A680F2313400893089D002D31D1002F2FD080220CA8291C00F0FCFC019B029A0AAF9B00DA51069B0A937F237B60079B27604B
:40358000336023681B0F0A2B03D01B4B1D680F231D400895089B002B12D11E4A04990A920A9A080410431C4A0A90276032602268120F0A2A03D0104B1A680F231340089387
:4035C000099B002B04D1104A039912680A6009930598FEF7EBFA09E00423089306E0019B01279B00EA58E95002927CE708982DB0F0BDC046B6D7000008000040040000408F
:403600000400008008010B40E8050020B6D8000005000080B6D9000006000080F8B5AD4B1B68002B00D09847AB4B1B68DB0702D50022AA4B1A60AA4B1A78920601D40021A3
:4036400023E0A84A00211068C00506D5C024A648A40001882143018001211268D20706D59020A14980000A8802430A8001E00029E5D0012102201A789B4C0A40821A208863
:40368000024392B2228000221A7018781022800600D4F6E0934C206810420CD09349924C0A600121187801400220411A2088014389B22180DAE0187800071BD50220256860
:4036C000054209D0894A8849106088200A88800002430A8001210DE01878C00702D525221A7007E02420187081480068002801D08048026004251A782A4200D19BE0012064
:403700001A78024243D008267B4A1468344223D07A4A7B4C156827687A4AEF1B0F2512682A40BA1AB24207D8002A06D17649774A0D682A400A60011C321C754D20682D6890
:40374000013A2818734D2D68EDB20570206801302060002AF1D117E012682A4214D0684A6B4E1468366834196A4E3668F6B226701468013414601468604A1268944202D2AA
:40378000654A156000E0011C6448654A49E002222468144220D05549624C0A6062490D320E680D68216832408A1AE90B0840101A2060842021685D4A800011604A490A8874
:4037C000024380200A805A4A40021168014311601068584901402CE0574A1068C00622D5564A1468504A424D10680F2210404D4A08280DD016682868864209D21068504D62
:4038000020180078C0B22860106801301060E9E710682A68904202D14020364A10604948494A106007E01268520604D53D4A11683E4A116001E000294AD03349334A08684A
:4038400002400A60002241490A602A490A60404A127892070CD50122197823480A400A218A1A01880A4392B2028060221A702FE0384B1A681823920600D4083B264A13605A
:4038800026E01978114023D1334C20684000400820601A701C4B314A186802401A6018682F4A02401A60294B1C4A1960114B1960254B1A60234A1A4B1A602A4A2A4B1A60FF
:4038C0002A4A0A4B1A6080222368120613432360F8BDC046880500208C0E0740880E0740370600200C0F074038060020000F07404C060020880F0740CC0F074054060020E2
:40390000400600200803074060000740FFFEFFFF480600204003074068000740ED0F0000C00F07403C060020080207404406002004020740FFFFFEFF8C0F074050060020B7
:4039400040020740F3070000800F0740C80F07403A0600206400074000000740FF5FFFFFFFFCFFFFFF0F0000400F074017030000F7B59C180023071C0826802501910092CE
:403980002370237800982B432370BB689B6C9847019B984202D22378AB432370013E6D08002EEED12378F82B01D9F8232370F7BD70B5051C0E1C00242B789C4208D2AB6834
:4039C000221C281C311C1B68FFF7D2FF0134F3E770BD38B5051C00242B789C4219D2AA6813681B5DDB080F2B00D90F23D16BD268C95C1155AA68042B04D9936D906B211C50
:403A0000012203E0936D906B211C002298470134E2E738BDF0B5041C002687B063789E4262D2A3685A6C925D0392002A01D1013203921A6C925D019201992278914251D2F8
:403A40009A689B69515C0F221140B2000492002205910499019D5A50019B5B000293039B019A9B189D423DD2A768E388A0885843FB68595D00F054F93B68595D00F0C0F832
:403A8000059B5843194B40005A2802D95B084008FAE7BA6904991B0C1B045350A36882085B6B01215855A368C008DB69029F5A550F22A36849421B6A5855A3685B6A5A558C
:403AC000A368986AC1530021D86AC153186B9B68C1535B19197801350A401A703B1C02330293BCE7013699E707B0F0BD0000FFFFF0B585684E002B6B925B9B191C8887B0B6
:403B0000141B0094AC6A1A80A45B6B6A0294EC6A5F5CA45B2B6A03946C6B7F00645C5B180494AC680193645C1B780594009CE40FA4460F24251C6744009C3D40AC46E51718
:403B400064196C409C4203D2012B05D0013B00E00133FF273F2B00D89F00019D2B7065460F2D29D0002D24D0BC4225D8059C029F24090094974200D9171C039D954200D2AB
:403B8000151C009A092A01D8141C01343A1C0A2C14D1EA1B934206D9049A92089A42924152429B1A00E001338268D26953543A1C04E0151C644601E0151C002467468368AC
:403BC00024015B6A5F5483689F6ABA53DA6A9B6895530F225B181D782A401A7083689B6859180B781C430C7007B0F0BD02B4714649084900095C49008E4402BC7047C046A8
:403C0000002243088B4274D303098B425FD3030A8B4244D3030B8B4228D3030C8B420DD3FF22090212BA030C8B4202D31212090265D0030B8B4219D300E0090AC30B8B4213
:403C400001D3CB03C01A5241830B8B4201D38B03C01A5241430B8B4201D34B03C01A5241030B8B4201D30B03C01A5241C30A8B4201D3CB02C01A5241830A8B4201D38B02D4
:403C8000C01A5241430A8B4201D34B02C01A5241030A8B4201D30B02C01A5241CDD2C3098B4201D3CB01C01A524183098B4201D38B01C01A524143098B4201D34B01C01A49
:403CC000524103098B4201D30B01C01A5241C3088B4201D3CB00C01A524183088B4201D38B00C01A524143088B4201D34B00C01A5241411A00D20146524110467047FFE7A5
:403D000001B5002000F0FCF802BDC0460029F7D003B5FFF775FF0EBC4243891A1847C04603460B437FD4002243088B4274D303098B425FD3030A8B4244D3030B8B4228D35E
:403D4000030C8B420DD3FF22090212BA030C8B4202D31212090265D0030B8B4219D300E0090AC30B8B4201D3CB03C01A5241830B8B4201D38B03C01A5241430B8B4201D3FD
:403D80004B03C01A5241030B8B4201D30B03C01A5241C30A8B4201D3CB02C01A5241830A8B4201D38B02C01A5241430A8B4201D34B02C01A5241030A8B4201D30B02C01A11
:403DC0005241CDD2C3098B4201D3CB01C01A524183098B4201D38B01C01A524143098B4201D34B01C01A524103098B4201D30B01C01A5241C3088B4201D3CB00C01A524155
:403E000083088B4201D38B00C01A524143088B4201D34B00C01A5241411A00D201465241104670475DE0CA0F00D04942031000D34042534000229C4603098B422DD3030A50
:403E40008B4212D3FC22890112BA030A8B420CD3890192118B4208D3890192118B4204D389013AD0921100E08909C3098B4201D3CB01C01A524183098B4201D38B01C01ADB
:403E8000524143098B4201D34B01C01A524103098B4201D30B01C01A5241C3088B4201D3CB00C01A524183088B4201D38B00C01A5241D9D243088B4201D34B00C01A52418C
:403EC000411A00D20146634652415B10104601D34042002B00D54942704763465B1000D3404201B5002000F00BF802BD0029F8D003B5FFF715FF0EBC4243891A1847C046BE
:403F00007047C0460E4B70B500251E1C0D4CE41AA410A54204D0AB00F35898470135F8E700F0A2FF084B00251E1C084CE41AA410A54204D0AB00F35898470135F8E770BD1C
:403F4000744E0000744E0000744E00007C4E0000002310B5934203D0CC5CC4540133F9E710BD031C8218934202D019700133FAE770470023C25C0133002AFBD1581E704733
:403F8000000000004658204F4646004658204F4E004658205461696C730050726F673A2000010300014F4E004F4646004C464F20004C464F20576176652000537175617222
:403FC000650D0A0053696E0D0A00547269616E676C650D0A0052616D702055700D0A0052616D7020446F776E0D0A0048797065727472690D0A0052616E646F6D0D0A005393
:404000006176696E672046732E2E2E0D0A00456D20454550524F4D206572726F72200D0A00536176696E67204C464F20576176652E2E2E0D0A00536176696E672050524FA0
:4040400047232E2E2E0D0A0042415345535441522046562D31200D0A0044657620426F617264200A0028632920323031352050696F7472205A61706172740D0A0077777766
:404080002E686578656775697461722E636F6D0D0A000021007F22000700AED580A83FD300408D142000A1C8DA1281CFD9F1DB40A4A6AF784040407F0101010F003840408D
:4040C000403E0101010E0018204020100C0201020C4040202010080404027F7F020404081020204040030C1020404020100C030F017F407C047C4060200000000000784069
:4041000040407F0101010F00384040403E0101010E0018204020100C0201020C4040202010080404027F7F020404081020204040030C1020404020100C030F017F407C0453
:404140007C4060205A3CE73C5A7F3E1C1C08081C1C3E7F14227F22145F5F005F5F06097F017F006689956A606060606094A2FFA29408047E040810207E201008082A1C0876
:40418000081C2A08081E101010100C1E0C1E0C30383E3830060E3E0E06000000000000005F00000007000700147F147F14242A7F2A12231308646236495620500008070364
:4041C00000001C2241000041221C002A1C7F1C2A08083E080800807030000808080808000060600020100804023E5149453E00427F400072494949462141494D33181412BA
:404200007F1027454545393C4A49493141211109073649494936464949291E0000140000004034000000081422411414141414004122140802015909063E415D594E7C1228
:4042400011127C7F494949363E414141227F4141413E7F494949417F090909013E414151737F0808087F00417F41002040413F017F081422417F404040407F021C027F7FA0
:404280000408107F3E4141413E7F090909063E4151215E7F09192946264949493203017F01033F4040403F1F2040201F3F4038403F631408146303047804036159494D432A
:4042C000007F4141410204081020004141417F04020102044040404040000307080020545478407F284444383844444428384444287F385454541800087E090218A4A49C4A
:40430000787F0804047800447D40002040403D007F1028440000417F40007C047804787C080404783844444438FC1824241818242418FC7C08040408485454542404043F46
:4043400044243C4040207C1C2040201C3C4030403C44281028444C9090907C4464544C4400083641000000770000004136080002010204023C2623263C1EA1A161123A40FD
:4043800040207A385454555921555579412254547842215554784020545579400C1E5272123955555559395454545939555454580000457C410002457D420001457C407D54
:4043C0001211127DF0282528F07C545545002054547C547C0A097F4932494949323A4444443A324A4848303A4141217A3A42402078009DA0A07D3D4242423D3D4040403D23
:404400003C24FF2424487E4943662B2FFC2F2BFF0929F620C0887E090320545479410000447D413048484A32384040227A007A0A0A727D0D19317D2629292F28262929297F
:404440002630484D4020380808080808080808382F10C8ACBA2F102834FA00007B000008142A142222142A1408AA005500AAAA55AA55AA000000FF00101010FF0014141411
:40448000FF001010FF00FF1010F010F0141414FC001414F700FF0000FF00FF1414F404FC141417101F10101F101F1414141F00101010F0000000001F101010101F1010105A
:4044C00010F010000000FF101010101010101010FF10000000FF140000FF00FF00001F10170000FC04F414141710171414F404F40000FF00F714141414141414F700F714C5
:404500001414171410101F101F141414F4141010F010F000001F101F0000001F14000000FC140000F010F01010FF10FF141414FF141010101F00000000F010FFFFFFFFFF1E
:40454000F0F0F0F0F0FFFFFF0000000000FFFF0F0F0F0F0F3844443844FC4A4A4A347E02020606027E027E0263554941633844443C04407E201E2006027E020299A5E7A556
:40458000991C2A492A1C4C7201724C304A4D4D303048784830BC625A463D3E494949007E0101017E2A2A2A2A2A44445F444440514A444040444A51400000FF0103E080FFF0
:4045C000000008086B6B083612362436060F090F06000018180000001010003040FF0101001F01011E00191D1712003C3C3C3C00000000004F464600544C53004F4E2000E8
:4046000045585400494E540046563120402000313100313600323200333200343400343800353200444143523A004D45544552204F4646004C464F3A00504F5400487A00E8
:404640006B487A0046733D006B487A00504F54303A0025204C464F3A2000504F54313A0025205741563A00504F54323A0025205350443A002500504F54333A00252044501F
:40468000543A0042415345535441522046562D310046562D31204453502064657620626F6172640064657369676E3A50696F7472205A617061727400286329203230313585
:4046C000007777772E686578656775697461722E636F6D0002000F403F300F401D310F4041320F4025330F4017400F401A410F4003420F4012430F4002600F40810D830D18
:404700004040410349FF4AFF4BFF4DA04F0450185A045F01604062C06440654066C068C06AC06CC06EC08303920699029E04A602AE01B001B202B301B402B604B702B920CA
:40474000BE10BF10C040C103C5D0C620C710C82AC9FFCAFFCBFFCDAFCE0FCF04D018D280D405D804D904DA04DB04DF01E040E2C0E440E540E6C0E8C0EAC0ECC0EEC00D0238
:404780000F02162017401C021D021E1824042640272037203F0241024220450246204F01562057015E885F0177408210C290C4A0CC20CE80D0C3D6D00C041402161C1803E0
:4047C0001C011E0C2E3F3008322034073610382039023A8A404549FF4AFF4BFF4F015018580459045A045C885F316040624064406540668068806A806C806E808E019201C1
:40480000B001B601BE40C054C5ECC720C823C9FFCAFFCBFFCD83CE03CF01D018D280D401D804DA04DB04DF01E040E240E440E540E680E880EA80EC80EE80020204400B4077
:404840000E2A1780188019401C401E2A27804101468049054B404E02510152025945728073407F40804087408E04AC01B404C081C2E8C480D081D218D60BDE80E2C0E62085
:40488000EA80EE042F205304568061106302660268806F207320750877047B807C0883208884CA80D460D640D8C0DA80DCE0DEE0E2802310280829082C042F8069408304AD
:4048C00087108A808B048D4097089C0C9D089E809F04A780A910AF01B202C840CAF0DA40E010E280EE3072207708DC0319021B801C825F0888419B089D02A780A902B380C3
:40490000B620B708C60FD601E201E604EA01EC0210011101030405060708090A0B0C0E0F101112131415161718191B1C1D1E1F2021222325262728292A2B2E2F30313233E6
:404940003435FF7F238347866A898B8CAA8FC792E195F8980A9C199F23A227A526A81EAB10AEFBB0DEB3B9B68CB955BC16BFCDC17AC41CC7B3C93FCCBFCE32D19AD3F4D525
:4049800042D881DAB3DCD6DEEBE0F1E2E7E4CEE6A5E86CEA23ECC9ED5EEFE1F054F2B4F303F540F66BF783F889F97CFA5CFB28FCE2FC89FD1CFE9CFE08FF61FFA6FFD7FFF7
:4049C000F5FFFFFFF5FFD7FFA6FF61FF08FF9CFE1CFE89FDE2FC28FC5CFB7CFA89F983F86BF740F603F5B4F354F2E1F05EEFC9ED23EC6CEAA5E8CEE6E7E4F1E2EBE0D6DED5
:404A0000B3DC81DA42D8F4D59AD332D1BFCE3FCCB3C91CC77AC4CDC116BF55BC8CB9B9B6DEB3FBB010AE1EAB26A827A523A2199F0A9CF898E195C792AA8F8B8C6A894786ED
:404A40002383FF7FDB7CB779947673735470376D1D6A0667F463E560DB5DD75AD857E054EE51034F204C45497246A943E840313E843BE2384B36BF333F31CC2E642C0A2A97
:404A8000BC277D254B232821131F0D1D171B301959179215DB133512A0101D0FAA0D4A0CFB0ABE0993087B0775068205A204D6031C037502E2016201F6009D005800270056
:404AC000090000000900270058009D00F6006201E20175021C03D603A204820575067B079308BE09FB0A4A0CAA0D1D0FA0103512DB13921559173019171B0D1D131F2821F7
:404B00004B237D25BC270A2A642CCC2E3F31BF334B36E238843B313EE840A94372464549204C034FEE51E054D857D75ADB5DE560F46306671D6A376D547073739476B7795E
:404B4000DB7CFFFFDAFCB6F992F66FF34CF029ED08EAE7E6C7E3A8E08BDD6FDA54D73BD423D10DCEF9CAE8C7D8C4CBC1C0BEB7BBB2B8AFB5AFB2B1AFB7ACC0A9CDA6DDA39C
:404B8000F0A0079E229B419864958B92B68FE58C198A52878F84D081177F637CB47909776574C5712B6F976C086A7F67FC647F620860985D2D5BC9586B561454C351794F0C
:404BC000364DFA4AC5489746704450423840273E1D3C1B3A21382E36433460328530B22EE72C242B6929B7270D266B24D2224121B91F3A1EC31C551BF01994184017F61558
:404C0000B4147C134D1227110A10F60EEC0DEB0CF40B050B210A45097408AC07ED0638068C05EB045304C4034003C5025402EC018F013B01F100B1007B004E002C0013002F
:404C400004000000040013002C004E007B00B100F1003B018F01EC015402C5024003C4035304EB048C053806ED06AC0774084509210A050BF40BEB0CEC0DF60E0A1027119D
:404C80004D127C13B414F61540179418F019551BC31C3A1EB91F4121D2226B240D26B7276929242BE72CB22E8530603243342E3621381B3A1D3C273E3840504270449746B5
:404CC000C548FA4A364D794FC35114546B56C9582D5B985D08607F62FC647F67086A976C2B6FC57165740977B479637C177FD0818F845287198AE58CB68F8B9264954198E9
:404D0000229B079EF0A0DDA3CDA6C0A9B7ACB1AFAFB2AFB5B2B8B7BBC0BECBC1D8C4E8C7F9CA0DCE23D13BD454D76FDA8BDDA8E0C7E3E7E608EA29ED4CF06FF392F6B6F913
:404D4000DAFC0000010101010101010101030402050006070000014004000140080001400C0001401000014008000440080104400802044008030440080404400000044002
:404D800000010440000204400003044000040440000102030405060702000000080000001000000004000000200000000100000040000000800000000001020304050607A2
:404DC0000101010101010101630600206B060020410500205B0600207B060020904D0000E4040020D4060020B4060020BC060020EC060020C4060020DC0600200807002041
:404E000059060020244E0000B84D0000C04D0000E92600000125000081230000C9240000C52600000202020404040408080808080808080800040000000400000004000054
:404E40000004000000040000000400000004000000010207030605004204EC02200276011001F800E6000000F8B5C046F8BC08BC9E4670470503000021180000F8B5C04694
:404E8000F8BC08BC9E467047DD020000A04E0000C800002088040000F00100000000000000000000400000000000000000000000000000000000000000000000000000006D
:404EC00000000000000000000000000000000000000000000000000000000000000000000000000000000000000000000000000000000000000000000000000000000000B2
:404F00000000000000000000000000000000000000000000000000000000000000000000000000000000000000000000000000000000000000000000000000000000000071
:404F40000000000000000000000000000000000000000000000000000000000000000000000000000000000000000000000000000000000000000000000000000000000031
:404F800000000000000000000000000000000000000000000000000000000000000000000000000000000000000000000000000000000000000000000000000000000000F1
:404FC00000000000000000000000000000000000000000000000000000000000000000000000000000000000000000000000000000000000000000000000000000000000B1
:405000000000000000000000000000000000000000000000000000000000000000000000000000000000000000000000000000000000000000000000000000000000000070
:405040000000000000000000000000000000000000000000000000000000000000000000000000000000000000000000000000000000000000000000000000000000000030
:4050800000000000000000000000000000000000000000000000000000000000000000000000000000000000000000000000000000000000000000000000000000000000F0
:4050C00000000000000000000000000000000000000000000000000000000000000000000000000000000000000000000000000000000000000000000000000000000000B0
:40510000000000000000000000000000000000000000000000000000000000000000000000000000000000000000000000000000000000000000000000000000000000006F
:40514000000000000000000000000000000000000000000000000000000000000000000000000000000000000000000000000000000000000000000000000000000000002F
:4051800000000000000000000000000000000000000000000000000000000000000000000000000000000000000000000000000000000000000000000000000000000000EF
:4051C00000000000000000000000000000000000000000000000000000000000000000000000000000000000000000000000000000000000000000000000000000000000AF
:40520000000000000000000000000000000000000000000000000000000000000000000000000000000000000000000000000000000000000000000000000000000000006E
:40524000000000000000000000000000000000000000000000000000000000000000000000000000000000000000000000000000000000000000000000000000000000002E
:40528000000000000000000000000000000000000000000000000000000000000000000000000000000000002AF1E32E0000C05D80BB000030000000006CDC020000FF0FE2
:4052C0000000FF0F0000FF0F0000FF0F0000FF0F0000FF0F0000FF0F0000FF0FFF0000000801044008010440080104400801044008010440080104400801044008010440E5
:405300000505050505050505011E1E1E1E1E1E1E1E646464646464646402020202020202020000000000000000000000000000000000000000000000000000000000000024
:40534000000000000000000000000000000000000000000000000000000000000000000000000000000000000000000000000000000000000000000000000000000000002D
:4053800000000000000000000000000000000000000000000000000000000000000000000000000000000000000000000000000000000000000000000000000000000000ED
:4053C00000000000000000000000000000000000000000000000000000000000000000000000000000000000000000000000000000000000000000000000000000000000AD
:40540000000000000000000000000000000000000000000000000000000000000000000000000000000000000000000000000000000000000000000000000000000000006C
:0200000490303A
:0200000052E7C5
:0200000490402A
:200000000000000000000000000000000000000000000000000000000000000000000000E0
:0200000490501A
:0C000000000204C81193110104E2647AAC
:0200000490600A
:0100000001FE
:00000001FF